:100000000C942E0B0C94560B0C94560B0C94560B14
:100010000C94560B0C94560B0C94560B0C94560BDC
:100020000C94560B0C94560B0C94560B0C94560BCC
:100030000C94560B0C94560B0C94560B0C94560BBC
:100040000C94FA120C94560B0C94560B0C94560B01
:100050000C94560B0C94560B0C94560B0C94560B9C
:100060000C94560B0C94560B00101000FE0A06A7B9
:10007000089500FFFE0EFE0BFE1010201000FEAAD9
:10008000AA00018000000180004A51EA505A51C97B
:100090009E00018000000180000001800055551085
:1000A00010201000FEAAAA00018000000180003983
:1000B00093C252325F8A5271938000000180000027
:1000C00001800055551010201000FEAAAA000180E2
:1000D00000000180003BA5C12431198924712580CD
:1000E0000000018000000180005555101020100014
:1000F000FEAAAA00018000000180007BA5C124792E
:1001000019C124792580000001800000018000557C
:10011000551010201000FEAAAA00018000000180E6
:100120000079BFC2487A49C24879898000000180BD
:10013000000001800055551010201000FEAAAA00F2
:10014000018000000180007A4DC2527B53C2D67AF2
:100150004F800000018000000180005555101020E4
:100160001000FEAAAA000180000001800031A5CA8B
:10017000287A31CA2849A58000000180000001804A
:100180000055551010201000FEAAAA0001800000A2
:1001900001800073D1CA1073D1CA1073DF800000D0
:1001A0000180000001800055551010201000FEAAAB
:1001B000AA00018000000180001E3991401E31918B
:1001C000081E71800000018000000180005555105C
:1001D00010201000FEAAAA00018000000180002269
:1001E000F9A2203E21A220222180000001800000EF
:1001F00001800055551010201000FEAAAA000180B1
:10020000000001800020F9A08020F9A0803E8180BC
:1002100000000180000001800055551010201000E2
:10022000FEAAAA000180000001800022F9A220227B
:1002300021942008218000000180000001800055E9
:10024000551010201000FEAAAA00018000000180B5
:10025000003EF9A0803EF9A080208180000001804E
:10026000000001800055551010201000FEAAAA00C1
:10027000018000000180001EF1A08820F1A0901EE6
:100280008980000001800000018000555510102079
:100290001000FEAAAA00018000000180001E71A0CB
:1002A000881C8982883C71800000018000000180E8
:1002B0000055551010201000FEAAAA000180000071
:1002C0000180001EF9A0201C2182203CF980000042
:1002D0000180000001800055551010201000FEAA7A
:1002E000AA0001800000018000391DA510251DA570
:1002F0001039DD800000018000000180005555109C
:1003000010201000FEAAAA000180000001800071E8
:1003100089CA184A09CA08719D800000018000003E
:1003200001800055551010201000FEAAAA0001807F
:1003300000000180007199CA044A09CA10719D80A9
:1003400000000180000001800055551010201000B1
:10035000FEAAAA00018000000180007199CA044A27
:1003600019CA0471998000000180000001800055C5
:10037000551010201000FEAAAA0001800000018084
:10038000007185CA0C4A15CA1C7185800000018065
:10039000000001800055551010201000FEAAAA0090
:1003A000018000000180004993EA546A59DBD44A75
:1003B000538000000180000001800055551010207E
:1003C0001000FEAAAA00018000000180003453C280
:1003D0009A3117891271138000000180000001809A
:1003E0000055551010201000FEAAAA000180000040
:1003F0000180007BB9C1247939C12479398000009A
:100400000180000001800055551010201000FEAA48
:10041000AA00018000000180003325C4B447ADC4A8
:10042000A434A58000000180000001800055551013
:1004300010201000FEAAAA00018000000180003EEA
:1004400089A0D83EA9A0883E8980000001800000D4
:1004500001800055551010201000FEAAAA0001804E
:1004600000000180003A5DC252325D8A52719D8067
:100470000000018000000180005555101020100080
:10048000FEAAAA000180000001800079CFC2107985
:1004900091C0507B8F8000000180000001800055DA
:1004A000551010201000FEAAAA0001800000018053
:1004B000001E7190801E61901010E180000001808C
:1004C000000001800055551010201000FEAAAA005F
:1004D000018000000180000E719080166192100E64
:1004E000E1800000018000000180005555101020BF
:1004F0001000FEAAAA00018000000180001C719279
:10050000801C61941012E1800000018000000180D5
:100510000055551010201000FEAAAA00018000000E
:1005200001800012719280126192100CE180000033
:1005300001800000018000555500000008000E01F8
:100540000A0A080400808080808080800080800506
:10055000040408020888888888060A0A080100241A
:100560002424FC4848FC909090070A0A08010010D7
:100570007C9290701C12927C10070A0A080100629B
:1005800094946810102C52528C070A0A0801003803
:1005900044442830528A848C720104040804088080
:1005A000808080030C0C0803FF2040408080808006
:1005B0008080404020030C0C0802FF804040202037
:1005C0002020202040408007070708010110925496
:1005D00038549210070707080101101010FE101080
:1005E000100204040803FEC0404080040101080218
:1005F00004F0020202080300C0C0060A0A08010053
:1006000004040810102020408080060A0A08010017
:1006100030488484848484844830050A0A080200AF
:100620002060A0202020202020F8060A0A080100CF
:10063000788484041820408080FC060A0A0801009F
:1006400078848404380404848478060A0A08010043
:10065000081828488888FC080808060A0A080100C3
:10066000FC808080F80404048478060A0A080100EB
:1006700038408080F88484848478060A0A0801005F
:10068000FC040408080810101010060A0A080100EB
:1006900078848484788484848478060A0A08010033
:1006A000788484847C04040408700207070803012A
:1006B000C0C0000000C0C00209090803FFC0C0009C
:1006C0000000C040408005090908020008102040D1
:1006D0008040201008060505080102FC000000FC0F
:1006E00005090908010080402010081020408006FC
:1006F0000A0A08010078848404081010001010060B
:100700000A0A080100384494ACA4A4A49C403C0606
:100710000A0A0801003048488484FC8484848406E2
:100720000A0A080100F8848484F884848484F80622
:100730000A0A080100788484808080808484780696
:100740000A0A080100F08884848484848488F0067E
:100750000A0A080100FC808080F880808080FC0606
:100760000A0A080100FC808080F880808080800672
:100770000A0A08010078848480809C84848C740632
:100780000A0A08010084848484FC848484848405A7
:100790000A0A080200F82020202020202020F80744
:1007A0000A0A0801003E0808080808088888700638
:1007B0000A0A080100848890A0C0C0A0908884061E
:1007C0000A0A080100808080808080808080FC068A
:1007D0000A0A0801008484CCCCB4B48484848406DE
:1007E0000A0A08010084C4C4A4A494948C8C8406CE
:1007F0000A0A0801007884848484848484847806C6
:100800000A0A080100F8848484F8808080808007C8
:100810000B0B0801FF78848484848484B4CC78062C
:10082000060A0A080100F8848484F8908888848481
:10083000060A0A0801007884848060180484847899
:10084000070A0A080100FE101010101010101010F6
:10085000060A0A0801008484848484848484847859
:10086000070A0A08010082828244444428281010A2
:10087000060A0A08010084848484B4B4CCCC84843D
:10088000060A0A08010084844848303048488484B5
:10089000070A0A0801008282444428101010101030
:1008A000060A0A080100FC0404081020408080FCAD
:1008B000030C0C0804FFE0808080808080808080B2
:1008C00080E0060A0A0801008080402020101008FD
:1008D0000404030C0C0801FFE0202020202020202D
:1008E000202020E0060303080109304884070101A5
:1008F0000801FFFE03030308020A804020060808DF
:100900000801007884047C84848C74060B0B080135
:1009100000808080B8C484848484C4B80608080831
:1009200001007884808080808478060B0B080100A9
:10093000040404748C848484848C7406080808017C
:1009400000788484FC80808478050B0B08010018F3
:10095000202020F8202020202020060B0B0801FE5C
:100960000474888888704078848478060B0B0801AA
:1009700000808080B8C4848484848484050B0B0840
:10098000020020200060202020202020F8050D0DEE
:100990000801FE0808001808080808080808906000
:1009A000060B0B0801008080808890A0C0A0908872
:1009B00084050B0B0802006020202020202020202E
:1009C00020F8070808080100EC9292929292929205
:1009D000060808080100B8C4848484848484060856
:1009E000080801007884848484848478060A0A08CC
:1009F00001FEB8C484848484C4B88080060A0A08CE
:100A000001FE748C848484848C74040406080808B1
:100A10000100B8C484808080808006080808010036
:100A20007884806018048478050A0A080100202070
:100A300020F82020202020180608080801008484BF
:100A4000848484848C7406080808010084848448A3
:100A5000484830300708080801008292929292922A
:100A6000926C060808080100848448303048848469
:100A7000060A0A0801FE84848484844C34040478C1
:100A8000060808080100FC040810204080FC030C44
:100A90000C0803FF60808040408080404080806080
:100AA000010E0E0804FE808080808080808080801F
:100AB00080808080030C0C0802FFC0202040402072
:100AC0002040402020C007030308010862928C10D8
:100AD00010201000FEAAAA0001800000018000730F
:100AE000D1CA104BD1CA1073DF8000000180000012
:100AF00001800055551010201000FEAAAA000180A8
:100B00000000018000719DCA5273D3C252425D80C1
:100B100000000180000001800055551010201000D9
:100B2000FEAAAA0001800000018000499DCA527AF5
:100B30005DCA50499180000001800000018000558D
:100B4000551010201000FEAAAA00018000000180AC
:100B5000007393CA52739FCA1272138000000180FF
:100B6000000001800055551010201000FEAAAA00B8
:100B7000018000000180004B93EA525B9FCA524BF8
:100B80009380000001800000018000555510102066
:100B90001000FEAAAA000180000001800074B9A61E
:100BA000A425A5A4A474B9800000018000000180E0
:100BB0000055551010201000FEAAAA000180000068
:100BC0000180004BD1EA105BD1CA104BDF800000DE
:100BD0000180000001800055551010201000FEAA71
:100BE000AA000180000001800039CDC212319F8827
:100BF0005273938000000180000001800055551061
:100C000010201000FEAAAA000180000001800079D7
:100C1000CDC212799FC0527B9380000001800000FA
:100C200001800055551010201000FEAAAA00018076
:100C300000000180004B9DC9207919C90449398001
:100C400000000180000001800055551010201000A8
:100C5000FEAAAA000180000001800025DDA4843CDA
:100C600085A4842499800000018000000180005543
:100C7000551010201000FEAAAA000180000001807B
:100C80000045CDC4904489A884109980000001805B
:100C9000000001800055551010201000FEAAAA0087
:100CA00001800000018000721DCA127213C212433B
:100CB000DD800000018000000180005555101020EB
:100CC0001000FEAAAA00018000000180007213CA71
:100CD000127213C21243CD80000001800000018017
:100CE0000055551010201000FEAAAA000180000037
:100CF0000180000E2189200E218A20092180000018
:100D00000180000001800055551010201000FEAA3F
:100D1000AA000180000001800039DDC202318D8807
:100D200050739F8000000180000001800055551025
:100D300010201000FEAAAA000180000001800039E6
:100D4000DDC202318D8842739D8000000180000069
:100D500001800055551010201000FEAAAA00018045
:100D6000000001800071CFCA104A0DCA0271DD80F7
:100D70000000018000000180005555101020100077
:100D8000FEAAAA00018000000180007245CA4C72D0
:100D900045C244418F800000018000000180005561
:100DA000551010201000FEAAAA000180000001804A
:100DB00000725DCA42724DC250419F8000000180A6
:100DC000000001800055551010201000FEAAAA0056
:100DD000018000000180003B9DC120311989047110
:100DE000398000000180000001800055551010205E
:100DF0001000FEAAAA000180000001800039D3C2C1
:100E000012421FC21239D38000000180000001800D
:100E10000055551010201000FEAAAA000180000005
:100E20000180002289B6882AA9A2D82289800000E0
:100E30000180000001800055551010201000FEAA0E
:100E4000AA00018000000180003B8DC252339F8ABE
:100E500012721380000001800000018000555510BF
:100E600010201000FEAAAA00018000000180007B73
:100E70008DC2527B9FC2127A138000000180000055
:100E800001800055551010201000FEAAAA00018014
:100E90000000018000398FC250324D8A42719D801E
:100EA0000000018000000180005555101020100046
:100EB000FEAAAA0001800000018000339BC4222505
:100EC000A394A2639B800000018000000180005574
:100ED000551010201000FEAAAA0001800000018019
:100EE0000039DDC20832098A0871DD800000018006
:100EF000000001800055551010201000FEAAAA0025
:100F00000180000001800039DDC2084189C0483BF2
:100F10009D800000018000000180005555101020C8
:100F20001000FEAAAA00018000000180000EF990C6
:100F3000200C2182201C2180000001800000018003
:100F40000055551010201000FEAAAA0001800000D4
:100F500001800031CFCA104991C850338F80000002
:100F60000180000001800055551010201000FEAADD
:100F7000AA00018000000180001C8992D81CA99061
:100F80008810898000000180000001800055551004
:100F900010201000FEAAAA0001800000018000338A
:100FA0008FCA507B91CA104A0F8000000180000058
:100FB000018000555500000008000E010A0A0804CF
:100FC0000080800080808080808080070A0A08017D
:100FD0000010107C929090927C1010070A0A080171
:100FE000001C202020F82020207CC20608080801D0
:100FF000018448784848784884070A0A0801008232
:10100000442810FE10FE101010010A0A0804008087
:10101000808080000080808080060A0A08010078B5
:1010200084807884847804847804020208020C9016
:1010300090080A0A0800003C4299A5A1A1A599427E
:101040003C050707080205700878887800F806094B
:101050000908010024244848904848242406040430
:10106000080100FC0404041010201000FEAAAA00CD
:101070000180003A63C25433C98A48724980000033
:1010800001800003C18000000180005555080A0A54
:101090000800003C42B9A5A5B9A9A5423C0601013A
:1010A00008010BFC03040408020A40A0A040070941
:1010B00009080101101010FE10101000FE050707AE
:1010C000080205708808708080F805070708020587
:1010D0007088087008887003030308030A204080A2
:1010E000080A0A0800FE42424242424266594080D3
:1010F000060C0C0801FF7CF4F4F4F47414141414BA
:10110000141C020202080304C0C00302020802FE0B
:1011100020C00307070802052060A020202020052A
:101120000707080205708888887000F80609090812
:101130000100909048482448489090060A0A080107
:101140000044C4485050242C549C84060A0A0801C8
:101150000044C4485050283444889C060A0A0801B8
:1011600000C4244830D0242C549C84060A0A080168
:101170000010100010106084848478060E0E0801A0
:1011800000601800003048488484FC84848484060D
:101190000E0E080100186000003048488484FC846A
:1011A000848484060E0E0801003048000030484850
:1011B0008484FC84848484060E0E080100649800F4
:1011C000003048488484FC84848484060E0E080120
:1011D00000484800003048488484FC8484848406A5
:1011E0000E0E080100304830003048488484FC84EA
:1011F000848484070A0A0801003E509090FE909073
:1012000090909E060C0C0801FE788484808080807B
:101210008484781060060E0E08010060180000FC3F
:10122000808080F880808080FC060E0E0801001807
:10123000600000FC808080F880808080FC060E0EBC
:1012400008010030480000FC808080F880808080A9
:10125000FC060E0E08010048480000FC808080F863
:1012600080808080FC050E0E08020060180000F8E7
:101270002020202020202020F8050E0E080200301B
:10128000C00000F82020202020202020F8050E0E8D
:1012900008020060900000F820202020202020205C
:1012A000F8050E0E08020090900000F82020202083
:1012B00020202020F8070A0A08000078444242F261
:1012C0004242424478060E0E0801006498000084F1
:1012D000C4C4A4A494948C8C84060E0E08010060EF
:1012E00018000078848484848484848478060E0EB4
:1012F00008010018600000788484848484848484D5
:1013000078060E0E0801003048000078848484843A
:101310008484848478060E0E0801006498000078A6
:10132000848484848484848478060E0E08010048B2
:101330004800007884848484848484847806050545
:101340000801028448304884060C0C0801FF04742C
:10135000888C9494A4A4C444B880060E0E0801009E
:101360006018000084848484848484848478060ED5
:101370000E080100186000008484848484848484BE
:101380008478060E0E0801003048000084848484AE
:10139000848484848478060E0E0801004848000086
:1013A00084848484848484848478070E0E080100F5
:1013B0001860000082824444281010101010060BA0
:1013C0000B0801008080F088848488F0808080068B
:1013D0000A0A08010070888890B0888484A498065E
:1013E0000C0C080100601800007884047C84848C54
:1013F00074060C0C080100186000007884047C84DA
:10140000848C74060C0C08010030480000788404B9
:101410007C84848C74060C0C0801006498000078AD
:1014200084047C84848C74060C0C080100484800F9
:10143000007884047C84848C74060D0D08010030CF
:10144000483000007884047C84848C740708080881
:1014500001007C92127E9090927C060A0A0801FE9E
:1014600078848080808084781060060C0C080100ED
:1014700060180000788484FC80808478060C0C0856
:10148000010018600000788484FC80808478060C59
:101490000C08010030480000788484FC8080847847
:1014A000060C0C08010048480000788484FC808009
:1014B0008478050C0C080200C03000006020202059
:1014C000202020F8050C0C08020030C0000060202D
:1014D0002020202020F8050C0C080200609000005D
:1014E00060202020202020F8050C0C08020090909D
:1014F000000060202020202020F8060C0C080100AD
:1015000064182844047C848484848478060C0C0841
:10151000010064980000B8C4848484848484060C28
:101520000C08010060180000788484848484847826
:10153000060C0C0801001860000078848484848400
:101540008478060C0C0801003048000078848484FC
:1015500084848478060C0C08010064980000788468
:10156000848484848478060C0C08010048480000B8
:101570007884848484848478060707080101300015
:1015800000FC000030060A0A0801FF04788C9494DD
:10159000A4A4C47880060C0C080100601800008424
:1015A00084848484848C74060C0C08010018600008
:1015B000008484848484848C74060C0C08010030BC
:1015C0004800008484848484848C74060C0C080194
:1015D00000484800008484848484848C74060E0E41
:1015E0000801FE1860000084848484844C34040460
:1015F00078050C0C0802FE8080F088888890A0C0D6
:10160000808080060E0E0801FE4848000084848415
:1016100084844C34040478FFE0FFD1AFFF32FFD064
:10162000FFFEFFE0FFD1AEFFD0FFFEFFE0FFD110D5
:1016300000FFFEFFD0FFE0FFC1FFD1AED580A83F85
:10164000D300408D142000A1C8DA1281CFD9F1DB7C
:10165000402EA4A6AFFFD0FFFE00A81411241FBE89
:10166000CFEFD8E0DEBFCDBF11E0A0E0B1E0ECE904
:10167000FAE202C005900D92A233B107D9F722E039
:10168000A2E3B1E001C01D92AC30B207E1F71BE06C
:10169000CEE2DBE004C02197FE010E944115CD326D
:1016A000D107C9F70E9444130C944C150C94000008
:1016B000CF92DF92EF92FF920F931F93CF93DF931E
:1016C0006C017A018B01C0E0D0E0CE15DF0589F016
:1016D000D8016D918D01D601ED91FC910190F081C1
:1016E000E02DC6010995892B11F47E0102C02196D7
:1016F000ECCFC701DF91CF911F910F91FF90EF9039
:10170000DF90CF9008958E3008F08E5087708064FF
:1017100080937C0080917A00806480937A0080912D
:101720007A0086FDFCCF809178002091790090E0CE
:10173000922B08953FB7F8948091B9019091BA0126
:10174000A091BB01B091BC0126B5A89B05C02F3F5D
:1017500019F00196A11DB11D3FBFBA2FA92F982FD7
:101760008827820F911DA11DB11DBC01CD0142E052
:10177000660F771F881F991F4A95D1F708952FB7D5
:10178000F8946091B5017091B6018091B701909184
:10179000B8012FBF08950E94BF0B28EE33E040E050
:1017A00050E00E941F15CA01B90108950895DC0197
:1017B0001696ED91FC91179712968C91481B4770E5
:1017C00081E090E001C0880F4A95EAF7E60FF11D2D
:1017D0003081222311F0832B02C0809583238083E4
:1017E0000895FB014181DC0112962C91129742175A
:1017F00068F013962C911397241740F0608115968A
:101800002C91621718F424810C94D70B0895FC01D5
:1018100080819281980F92832181921760F4948144
:101820009F5F94839381890F821710F08FEF820F4F
:10183000838381E0089580E00895FC011282808115
:101840008150838314820895DB01ED91FC9109940A
:101850006F927F928F929F92AF92BF92CF92DF92C0
:10186000EF92FF920F931F93CF93DF9300D0CDB7EA
:10187000DEB77C018901FB01C280D3804B3309F4C0
:101880005BC028F44731F9F0423379F104C04634A3
:1018900041F0473459F09801B601C7010E94240C69
:1018A000B3C09E012F5F3F4F46E404C09E012F5FEF
:1018B0003F4F47E4B601C7010E94240C89818695F9
:1018C000F8018083A0C047E1B6010E94240CF80112
:1018D00080818695808382818695828381818695A9
:1018E00081838381869583838EC0F901A080AA0CB1
:1018F000B180BB0CA082B18242E3B6010E94240CED
:10190000992493949A0CF8019082B182980142E351
:10191000B601C7010E94240CB394F8019082B182F1
:10192000980142E3B601C7010E94240CF801A0828D
:10193000B182980142E363C0F9019281A38088E0FB
:10194000812C912C880C991C880C991C97FF02C043
:10195000F3E08F2A990F8150A9F7F801B080BB0CF2
:101960005181550FA0FE05C0662463946B0C752E43
:1019700004C077247394750E6B2CF8019282B082A8
:10198000518398014BE3B601C7015A830E94240C8E
:10199000F80160827182A38298014BE3B601C7010E
:1019A0000E94240CF80182825A81F1E0AF1681F086
:1019B000AF1650F022E0A21679F083E0A8120FC013
:1019C000585088EF780E0BC0E8E0BE0E6E0E07C0D0
:1019D000585FF8E07F0E03C028EFB20E620EF801E8
:1019E000B0825183A38298014BE3B601C7010E94E4
:1019F000240CF80160827182A38298014BE3B60146
:101A0000C7010E94240C81E00F900F90DF91CF91CD
:101A10001F910F91FF90EF90DF90CF90BF90AF900C
:101A20009F908F907F906F9008950F931F93CF9307
:101A3000DF931F92CDB7DEB78C01FC016281738109
:101A40009E012F5F3F4F46E40E94240C8981F801DC
:101A50008083628173819E012F5F3F4F47E4C801FD
:101A60000E94240C8981F80181836281738120E0C6
:101A700030E048E4C8010E94240CF80183879801F3
:101A80002D5C3F4F6281738147E1C8010E94240CA5
:101A90000F90DF91CF911F910F9108950F931F9396
:101AA000CF93DF93EC010A811B81E9A9FAA982E0B7
:101AB000099520E030E04AE0B801CE010E94240CF4
:101AC000182FE9A9FAA983E00995E9A9FAA980E004
:101AD0000995112329F0CE010E94150D81E001C066
:101AE00080E0DF91CF911F910F91089580E00895DC
:101AF0000B96FC01849108950A96FC018491089547
:101B0000FC01849108950E94800D882321F0823089
:101B100011F083E0089586E00895FC01E60FF11DC1
:101B2000849190E0982F88273196E4918E0F911D33
:101B3000089568E00C948D0D66E00C948D0D2EE9EF
:101B40003FE0009729F0F9013197F1F70197F9CFBC
:101B500008959091B301911104C08093B3016093F3
:101B6000B20108951F93CF93DF9300D0CDB7DEB7B6
:101B700020ED37E03A8329839091BC00982399F4B3
:101B800029813A81232B51F480910B02182F127076
:101B900081FD09C081E00E94A90D06C029813A811A
:101BA00021503109E7CF11E0812F0F900F90DF9185
:101BB000CF911F910895CF9384EA8093BC0061E098
:101BC00080E80E94B20D882359F08091B900887F87
:101BD000883041F0803131F061E082E00E94A90D4F
:101BE000C0E01DC088E78093BB0084E88093BC0000
:101BF00062E080E80E94B20D882391F380910B028D
:101C0000C82FC27081FD0AC08091B900887F8831D9
:101C100029F062E082E00E94A90D01C0C1E08C2F92
:101C2000CF91089584E98093BC0064E080E10C9436
:101C3000B20DCF938093BB0084E88093BC0063E037
:101C400080E80E94B20DC82F882389F080910B0292
:101C5000C82FC27081FD0AC08091B900887F883288
:101C600029F063E082E00E94A90D01C0C1E08C2F41
:101C7000CF9108951092B3011092B201089580930C
:101C80000B021092B90084FF02C08CE001C088E40E
:101C90008093B8000C943A0ECF93DF93FC0123A5F8
:101CA000222379F0EC010E94DB0D811102C080E05B
:101CB00009C08EA1811180E40E94190E8823B9F316
:101CC0001BA681E0DF91CF9108950F931F93CF93CF
:101CD000C42F89016330C1F050F4613081F062306B
:101CE00009F048C0FC0146A321E023A743C06630A9
:101CF00011F1673079F1653009F03CC00EC0FC018C
:101D000086A50E943F0E36C0FC0116A221E023A743
:101D1000411130C00E94120E2DC00E944C0E811144
:101D200004C00E94120E80E026C08C2F0E94190E63
:101D3000811120C0F6CF0E944C0E882391F3CC2352
:101D4000C9F0F80181918F010E94190E882349F38F
:101D5000C150F5CF0E944C0E882319F3CC2351F0CB
:101D6000F80184910E94190E882329F00F5F1F4FFC
:101D7000C150F4CF81E0CF911F910F910895DB0105
:101D80001496ED91FC91159720E030E065E0099400
:101D9000DB011496ED91FC91159720E030E062E0B4
:101DA0000994DB011496ED91FC91159720E030E049
:101DB00063E00994CF92DF92EF92FF920F931F930B
:101DC000CF93DF938C017B016A0180E0F601C4911F
:101DD00081110BC0CF3F09F44CC04C2FB701C80193
:101DE0000E94BF0E811143C049C0CF3F11F44FEF95
:101DF000F5CFCE3F09F444C0C03FC8F5C03E38F02F
:101E00004C2F4F70B701C8010E94C80E30C0C03DB2
:101E100038F04C2F4F70B701C8010E94D10E27C077
:101E2000C03CF8F0D7011496ED91FC91159720E095
:101E300030E040E064E0C8010995C295C07FCE5F04
:101E4000D0E0CE010E949F0DD7011496ED91FC9138
:101E5000159720E030E041E064E0C8010995CE012B
:101E600004C0C7FD04C08C2F90E00E949F0D80E04D
:101E700001C081E0BFEFCB1ADB0AA8CF80E001C030
:101E800081E0DF91CF911F910F91FF90EF90DF9054
:101E9000CF9008958F929F92AF92BF92CF92DF9290
:101EA000FF920F931F93CF93DF9300D0CDB7DEB790
:101EB0006C018B01F42E490120E1421709F467C03F
:101EC000241700F13AE0431729F18FE0481369C065
:101ED00041E0C6010E94D10E40E0B801C6010E9457
:101EE000C80E41E8B801C6010E94BF0EF40140814E
:101EF000B801C6010E94BF0E40E0B801C6010E94B1
:101F0000D10E08C1A1E14A1709F444C0B5E14B174D
:101F100091F047C0DB011496ED91FC91159720E0FC
:101F200030E042E061E0099543E356E1B801C601C3
:101F30000E94DA0E36C0FB01A280B3804BE256E16C
:101F40000E94DA0ED50114964C91406BB801C6017F
:101F50000E94BF0E41E0B801C6010E94C80EF50103
:101F600026813781D8011496ED91FC911597D50102
:101F700015964C9166E0C6010995811102C080E07A
:101F8000CAC040E0B801C6010E94D10E0AC042E2B8
:101F900056E102C047E156E1B801C6010E94DA0EDF
:101FA000B9C0D80112960D911C911397B2E3FB169C
:101FB00009F474C0BF15B8F0E5E1FE1609F47BC062
:101FC000F7E1FF1609F48DC024E1F212A3C0D80195
:101FD0001696ED91FC91179715968C919F01280FFD
:101FE000311DC90160C036E4F31609F48AC087E4E4
:101FF000F81609F48AC0ABE3FA128CC0F4018181AF
:102000009381913029F0933031F4482F885004C0E7
:1020100048E0480F01C0482F21E0D80113963C91B9
:10202000381708F420E031E0F8015281451708F430
:1020300030E051E0481708F050E0822F852B38231C
:1020400019F4252309F466C0D4011296FC9091304E
:1020500051F030F0923049F0933051F42FEF09C035
:1020600020E031E007C021E004C020E03FEF02C0E3
:1020700020E030E0F7FE08C0B401C8012A833983AC
:102080000E94F10B39812A81F4018081830F8083C2
:102090008181820F8183FF0C69F73CC0B401C801C4
:1020A0000E94F10B37C01192E817F907E1F7C80158
:1020B0000E941D0C2FC0C8010E94070C882309F440
:1020C0005ECFD8011696ED91FC91179715968C91DD
:1020D0009F01280F311DC9011192E817F907E1F797
:1020E00019C0D4011C92F801828111968C9311972A
:1020F0008581815012968C931297838113968C93CD
:1021000009C0D80115968C9103C0D80111968C9105
:10211000F401808381E00F900F90DF91CF911F91A8
:102120000F91FF90DF90CF90BF90AF909F908F90D6
:1021300008952F923F924F925F926F927F928F926B
:102140009F92AF92BF92CF92DF92EF92FF920F9346
:102150001F93CF93DF931F92CDB7DEB71C01A62E3E
:10216000DC01DC96BC90DC97DB96EC906C01B4E073
:10217000CB0ED11CDC015996ED91FC915A97C6010A
:102180000995F82EF10100851185C8010E94800D86
:10219000982ED10118968D919C9119970E94830DCC
:1021A000682EB1E09B1203C02FE0922E02C099244A
:1021B0009A94F101808591850E947C0D882ED10131
:1021C00018968D919C9119970E94780D782EF101A7
:1021D000808591850E94990DF0E6FA1538F40097F4
:1021E00029F0080F191F91E6892E13C0D101189606
:1021F0008D919C9119970E949C0DB0E4BA1538F40A
:10220000009729F0080F191F81E4882E02C00F5E85
:102210001F4F7A1438F4F101148A178A108E158A28
:10222000168A9EC07814B8F3262D30E0F801849108
:102230008F3F19F40F5F1F4F5AC08A104FC0D10152
:1022400018968D919C9119970E94800D98012F5F8F
:102250003F4FF801882311F08230E1F48491D101DD
:1022600057968C935797F901249158962C93589729
:10227000F8013396E4915496EC935497F801349610
:10228000E4915596EC935597F8013596E49156965E
:10229000EC9320C08491982F9F709250D101569654
:1022A0009C93569782958F7055968C935597F9010C
:1022B0002491822F8F7058968C93589722952F7067
:1022C00057962C935797F8013296E491E295EF7068
:1022D0005496EC930115110579F442C0F801329639
:1022E000E491E921C9018E0F911D080F191F871470
:1022F00009F491CF83949ACFF101808591850E9452
:10230000830DD10157963C91579758962C91589729
:1023100055965C915597B21A56969C915697B91A54
:10232000FB0C9FEF920F9F0DD8964C91D897DA96A1
:102330006C916F1518F0941728F402C0941768F088
:102340009F1558F4E50E9FEF930F9E0DF10147A9DD
:1023500051AD5E1538F4941738F4F10184893FC00B
:1023600080E03DC0941710F49E15B8F7080F111DBA
:10237000395F532E5694569456944F2C420E410179
:10238000F0E28F0E911C652C712CF41431F35E2D4C
:1023900058018A2D801B8515F0F4F5018491D10137
:1023A00016966D917C91179790965C939097919665
:1023B000FC92919793961C92939792968C9394018A
:1023C0004BE3C60159830E94240CBFEFAB1ABB0A32
:1023D0005981585FDECF060D171DF394D6CFD1017A
:1023E000DB962C91DB97082E000C990B820F911D28
:1023F000DB968C9381E090E00F90DF91CF911F915D
:102400000F91FF90EF90DF90CF90BF90AF909F9093
:102410008F907F906F905F904F903F902F90089596
:10242000089580E090E008950E944715CF92DF92D2
:10243000EF92FF920F931F93CF93DF93CDB7DEB749
:10244000A1970FB6F894DEBF0FBECDBF8091C50136
:102450009091C6018856904009F445C088E690E006
:102460009093C6018093C5018091D801811108C065
:10247000EDE6F0E0E491E093D901E4E7F0E011C08B
:10248000813041F4E7E7F0E0E491E093D901E8E737
:10249000F0E007C0E5E7F0E0E491E093D901E6E77A
:1024A000F0E0E491E093DA018091D901082E000C6C
:1024B000990B2091DA01821B910927FD93952091B8
:1024C000DB01203441F0829FC001112426E0969563
:1024D00087952A95E1F78093DC0186E79DE090934C
:1024E000D7018093D6018091C3019091C401E1E0AE
:1024F00088309E0751F090930B0180930A0188E089
:1025000091E09093C4018093C30188E29CE0909392
:1025100009018093080181EC91E00E94150D109251
:10252000F80184E18093F9018091FB019091FC0115
:10253000019769F4E0910702F09108020995609310
:102540000302709304028093050290930602409167
:10255000030250910402609105027091060280917D
:10256000FF0190910002A0910102B09102029A0134
:10257000AB01281B390B4A0B5B0B19A28E010F5DB7
:102580001F4F8AE0C82ED12CE12CF12CCA01B901D1
:10259000A70196010E941F15605DF80162938F01EB
:1025A000211531054105510589F7309761F00190FA
:1025B0000020E9F73197AF01401B510BB8018DEBBB
:1025C00091E00E94580B43E050E06EE271E08DEB29
:1025D00091E00E94580BA1960FB6F894DEBF0FBE93
:1025E000CDBFDF91CF911F910F91FF90EF90DF90C2
:1025F000CF9008951F920F920FB60F9211242F9330
:102600003F938F939F93AF93BF938091B501909128
:10261000B601A091B701B091B8013091B40123E0A7
:10262000230F2D3720F40196A11DB11D05C026E80A
:10263000230F0296A11DB11D2093B4018093B50113
:102640009093B601A093B701B093B8018091B901FE
:102650009091BA01A091BB01B091BC010196A11D5E
:10266000B11D8093B9019093BA01A093BB01B093BF
:10267000BC01BF91AF919F918F913F912F910F908E
:102680000FBE0F901F901895789484B5826084BD1A
:1026900084B5816084BD85B5826085BD85B5816066
:1026A00085BD80916E00816080936E0010928100E4
:1026B000809181008260809381008091810081609F
:1026C0008093810080918000816080938000809160
:1026D000B10084608093B1008091B00081608093EC
:1026E000B00080917A00846080937A0080917A00B3
:1026F000826080937A0080917A00816080937A0072
:1027000080917A00806880937A001092C100C0E0C6
:10271000D0E001E010E092E0E92EF12C80E00E9490
:10272000830B5C01909315018093140181E00E945A
:10273000830B90930A02809309022CE2A21621E0F7
:10274000B206E4F58091FB019091FC018D7F892B0D
:10275000A9F51093FC010093FB01E0910702F091B1
:10276000080209954090FF0150900002609001021C
:10277000709002028090030290900402A0900502E3
:10278000B0900602A3019201281939094A095B0990
:1027900049015A01860E971EA81EB91E8092FF019C
:1027A00090920002A0920102B09202026093030292
:1027B00070930402809305029093060280910902AF
:1027C00090910A02853691050CF4BCC08091FB0102
:1027D0009091FC01019789F4E0910702F0910802C1
:1027E000099560930302709304028093050290930D
:1027F0000602F092FC01E092FB018091FA01811146
:1028000007C081E08093FA0181EC91E00E944E0DB7
:10281000A090C301B090C401E091F201F091F301E6
:1028200082E00995E091F201F091F30181E00995D0
:1028300020E030E044E1B50181EC91E00E94240CFD
:1028400024EF31E047E1B50181EC91E00E94240CD6
:10285000E091F201F091F30180E009950E941612D7
:10286000E091CF01F091D001309719F081EC91E027
:1028700009958090C3019090C401E091F201F0911C
:10288000F30182E00995E091F201F091F30181E01A
:10289000099520E030E045E1B40181EC91E00E942F
:1028A000240CB82E882341F024EF31E047E1B40135
:1028B00081EC91E00E94240CE091F201F091F3018F
:1028C00080E00995B110CACF0E9416120E949A0B9F
:1028D0002B013C0180E4882E82E4982E8FE0A82E04
:1028E000B12C0E949A0BDC01CB0184199509A60931
:1028F000B709883E9340A105B10558F031E0831A2D
:102900009108A108B10848EE440E43E0541E611C32
:10291000711C81149104A104B10419F71092FC01F7
:102920001092FB0110920302109204021092050211
:10293000109206021092FF01109200021092010202
:1029400010920202209709F4E9CE0E940000E6CE20
:102950001092C0011092BF018AE191E09093BE01F4
:102960008093BD011092F8011092F9011092FA01C2
:102970001092C6011092C5011092C8011092C701B1
:102980001092CA0181E08093C90182E28093CB0159
:102990001092D0011092CF01E4EEF1E09FEF8EE0B3
:1029A0008E0F91938E13FDCF81E08093E10126E796
:1029B0003DE03093D7012093D6018093D801109247
:1029C000D9011092DA0180E48093DB011092DC01DE
:1029D00086ED9BE09093F3018093F2018EE091E00D
:1029E0009093C4018093C3011092EF0181EC91E0B8
:1029F0000E944E0D86E291E09093BE018093BD014E
:102A00001092FE011092FD018FEB9BE09093080263
:102A1000809307021092FC011092FB0110920302B6
:102A20001092040210920502109206021092FF0109
:102A30001092000210920102109202020895A1E287
:102A40001A2EAA1BBB1BFD010DC0AA1FBB1FEE1F28
:102A5000FF1FA217B307E407F50720F0A21BB30B73
:102A6000E40BF50B661F771F881F991F1A9469F7EF
:102A700060957095809590959B01AC01BD01CF014B
:102A80000895EE0FFF1F0590F491E02D099481E069
:0C2A900090E0F8940C944C15F894FFCFE3
:102A9C000840000000803201280C000000004A0FA2
:102AAC000001650E5802000000009910580B11121D
:102ABC001012000000009910580B11121012204D2A
:022ACC005300B5
:00000001FF
